{
  "_format": "hh-sol-artifact-1",
  "contractName": "BulkMint",
  "sourceName": "contracts/BulkMint.sol",
  "abi": [
    {
      "inputs": [],
      "stateMutability": "nonpayable",
      "type": "constructor"
    },
    {
      "anonymous": false,
      "inputs": [
        {
          "indexed": true,
          "internalType": "address",
          "name": "owner",
          "type": "address"
        },
        {
          "indexed": true,
          "internalType": "address",
          "name": "approved",
          "type": "address"
        },
        {
          "indexed": true,
          "internalType": "uint256",
          "name": "tokenId",
          "type": "uint256"
        }
      ],
      "name": "Approval",
      "type": "event"
    },
    {
      "anonymous": false,
      "inputs": [
        {
          "indexed": true,
          "internalType": "address",
          "name": "owner",
          "type": "address"
        },
        {
          "indexed": true,
          "internalType": "address",
          "name": "operator",
          "type": "address"
        },
        {
          "indexed": false,
          "internalType": "bool",
          "name": "approved",
          "type": "bool"
        }
      ],
      "name": "ApprovalForAll",
      "type": "event"
    },
    {
      "anonymous": false,
      "inputs": [
        {
          "indexed": true,
          "internalType": "address",
          "name": "previousOwner",
          "type": "address"
        },
        {
          "indexed": true,
          "internalType": "address",
          "name": "newOwner",
          "type": "address"
        }
      ],
      "name": "OwnershipTransferred",
      "type": "event"
    },
    {
      "anonymous": false,
      "inputs": [
        {
          "indexed": true,
          "internalType": "address",
          "name": "from",
          "type": "address"
        },
        {
          "indexed": true,
          "internalType": "address",
          "name": "to",
          "type": "address"
        },
        {
          "indexed": true,
          "internalType": "uint256",
          "name": "tokenId",
          "type": "uint256"
        }
      ],
      "name": "Transfer",
      "type": "event"
    },
    {
      "inputs": [
        {
          "internalType": "address",
          "name": "to",
          "type": "address"
        },
        {
          "internalType": "uint256",
          "name": "tokenId",
          "type": "uint256"
        }
      ],
      "name": "approve",
      "outputs": [],
      "stateMutability": "nonpayable",
      "type": "function"
    },
    {
      "inputs": [
        {
          "internalType": "address",
          "name": "owner",
          "type": "address"
        }
      ],
      "name": "balanceOf",
      "outputs": [
        {
          "internalType": "uint256",
          "name": "",
          "type": "uint256"
        }
      ],
      "stateMutability": "view",
      "type": "function"
    },
    {
      "inputs": [],
      "name": "baseExtension",
      "outputs": [
        {
          "internalType": "string",
          "name": "",
          "type": "string"
        }
      ],
      "stateMutability": "view",
      "type": "function"
    },
    {
      "inputs": [
        {
          "internalType": "address[]",
          "name": "to",
          "type": "address[]"
        }
      ],
      "name": "batchMint",
      "outputs": [],
      "stateMutability": "nonpayable",
      "type": "function"
    },
    {
      "inputs": [
        {
          "internalType": "uint256",
          "name": "tokenId",
          "type": "uint256"
        }
      ],
      "name": "getApproved",
      "outputs": [
        {
          "internalType": "address",
          "name": "",
          "type": "address"
        }
      ],
      "stateMutability": "view",
      "type": "function"
    },
    {
      "inputs": [
        {
          "internalType": "address",
          "name": "owner",
          "type": "address"
        },
        {
          "internalType": "address",
          "name": "operator",
          "type": "address"
        }
      ],
      "name": "isApprovedForAll",
      "outputs": [
        {
          "internalType": "bool",
          "name": "",
          "type": "bool"
        }
      ],
      "stateMutability": "view",
      "type": "function"
    },
    {
      "inputs": [],
      "name": "maxSupply",
      "outputs": [
        {
          "internalType": "uint256",
          "name": "",
          "type": "uint256"
        }
      ],
      "stateMutability": "view",
      "type": "function"
    },
    {
      "inputs": [],
      "name": "mint",
      "outputs": [],
      "stateMutability": "payable",
      "type": "function"
    },
    {
      "inputs": [
        {
          "internalType": "address",
          "name": "_to",
          "type": "address"
        }
      ],
      "name": "mintToAddress",
      "outputs": [],
      "stateMutability": "nonpayable",
      "type": "function"
    },
    {
      "inputs": [],
      "name": "name",
      "outputs": [
        {
          "internalType": "string",
          "name": "",
          "type": "string"
        }
      ],
      "stateMutability": "view",
      "type": "function"
    },
    {
      "inputs": [],
      "name": "owner",
      "outputs": [
        {
          "internalType": "address",
          "name": "",
          "type": "address"
        }
      ],
      "stateMutability": "view",
      "type": "function"
    },
    {
      "inputs": [
        {
          "internalType": "uint256",
          "name": "tokenId",
          "type": "uint256"
        }
      ],
      "name": "ownerOf",
      "outputs": [
        {
          "internalType": "address",
          "name": "",
          "type": "address"
        }
      ],
      "stateMutability": "view",
      "type": "function"
    },
    {
      "inputs": [
        {
          "internalType": "bool",
          "name": "_state",
          "type": "bool"
        }
      ],
      "name": "pause",
      "outputs": [],
      "stateMutability": "nonpayable",
      "type": "function"
    },
    {
      "inputs": [],
      "name": "paused",
      "outputs": [
        {
          "internalType": "bool",
          "name": "",
          "type": "bool"
        }
      ],
      "stateMutability": "view",
      "type": "function"
    },
    {
      "inputs": [],
      "name": "renounceOwnership",
      "outputs": [],
      "stateMutability": "nonpayable",
      "type": "function"
    },
    {
      "inputs": [
        {
          "internalType": "address",
          "name": "from",
          "type": "address"
        },
        {
          "internalType": "address",
          "name": "to",
          "type": "address"
        },
        {
          "internalType": "uint256",
          "name": "tokenId",
          "type": "uint256"
        }
      ],
      "name": "safeTransferFrom",
      "outputs": [],
      "stateMutability": "nonpayable",
      "type": "function"
    },
    {
      "inputs": [
        {
          "internalType": "address",
          "name": "from",
          "type": "address"
        },
        {
          "internalType": "address",
          "name": "to",
          "type": "address"
        },
        {
          "internalType": "uint256",
          "name": "tokenId",
          "type": "uint256"
        },
        {
          "internalType": "bytes",
          "name": "data",
          "type": "bytes"
        }
      ],
      "name": "safeTransferFrom",
      "outputs": [],
      "stateMutability": "nonpayable",
      "type": "function"
    },
    {
      "inputs": [
        {
          "internalType": "address",
          "name": "operator",
          "type": "address"
        },
        {
          "internalType": "bool",
          "name": "approved",
          "type": "bool"
        }
      ],
      "name": "setApprovalForAll",
      "outputs": [],
      "stateMutability": "nonpayable",
      "type": "function"
    },
    {
      "inputs": [
        {
          "internalType": "string",
          "name": "_newBaseExtension",
          "type": "string"
        }
      ],
      "name": "setBaseExtension",
      "outputs": [],
      "stateMutability": "nonpayable",
      "type": "function"
    },
    {
      "inputs": [
        {
          "internalType": "string",
          "name": "_newBaseURI",
          "type": "string"
        }
      ],
      "name": "setBaseURI",
      "outputs": [],
      "stateMutability": "nonpayable",
      "type": "function"
    },
    {
      "inputs": [
        {
          "internalType": "bytes4",
          "name": "interfaceId",
          "type": "bytes4"
        }
      ],
      "name": "supportsInterface",
      "outputs": [
        {
          "internalType": "bool",
          "name": "",
          "type": "bool"
        }
      ],
      "stateMutability": "view",
      "type": "function"
    },
    {
      "inputs": [],
      "name": "symbol",
      "outputs": [
        {
          "internalType": "string",
          "name": "",
          "type": "string"
        }
      ],
      "stateMutability": "view",
      "type": "function"
    },
    {
      "inputs": [
        {
          "internalType": "uint256",
          "name": "index",
          "type": "uint256"
        }
      ],
      "name": "tokenByIndex",
      "outputs": [
        {
          "internalType": "uint256",
          "name": "",
          "type": "uint256"
        }
      ],
      "stateMutability": "view",
      "type": "function"
    },
    {
      "inputs": [
        {
          "internalType": "address",
          "name": "owner",
          "type": "address"
        },
        {
          "internalType": "uint256",
          "name": "index",
          "type": "uint256"
        }
      ],
      "name": "tokenOfOwnerByIndex",
      "outputs": [
        {
          "internalType": "uint256",
          "name": "",
          "type": "uint256"
        }
      ],
      "stateMutability": "view",
      "type": "function"
    },
    {
      "inputs": [
        {
          "internalType": "uint256",
          "name": "tokenId",
          "type": "uint256"
        }
      ],
      "name": "tokenURI",
      "outputs": [
        {
          "internalType": "string",
          "name": "",
          "type": "string"
        }
      ],
      "stateMutability": "view",
      "type": "function"
    },
    {
      "inputs": [],
      "name": "totalSupply",
      "outputs": [
        {
          "internalType": "uint256",
          "name": "",
          "type": "uint256"
        }
      ],
      "stateMutability": "view",
      "type": "function"
    },
    {
      "inputs": [
        {
          "internalType": "address",
          "name": "from",
          "type": "address"
        },
        {
          "internalType": "address",
          "name": "to",
          "type": "address"
        },
        {
          "internalType": "uint256",
          "name": "tokenId",
          "type": "uint256"
        }
      ],
      "name": "transferFrom",
      "outputs": [],
      "stateMutability": "nonpayable",
      "type": "function"
    },
    {
      "inputs": [
        {
          "internalType": "address",
          "name": "newOwner",
          "type": "address"
        }
      ],
      "name": "transferOwnership",
      "outputs": [],
      "stateMutability": "nonpayable",
      "type": "function"
    },
    {
      "inputs": [
        {
          "internalType": "address",
          "name": "_owner",
          "type": "address"
        }
      ],
      "name": "walletOfOwner",
      "outputs": [
        {
          "internalType": "uint256[]",
          "name": "",
          "type": "uint256[]"
        }
      ],
      "stateMutability": "view",
      "type": "function"
    },
    {
      "inputs": [],
      "name": "withdraw",
      "outputs": [],
      "stateMutability": "payable",
      "type": "function"
    }
  ],
  "bytecode": "0x60806040526040518060400160405280600581526020017f2e6a736f6e000000000000000000000000000000000000000000000000000000815250600c90805190602001906200005192919062000343565b50620186a0600d556000600e60006101000a81548160ff0219169083151502179055503480156200008157600080fd5b506040518060400160405280600881526020017f42756c6b4d696e740000000000000000000000000000000000000000000000008152506040518060400160405280600281526020017f424d00000000000000000000000000000000000000000000000000000000000081525081600090805190602001906200010692919062000343565b5080600190805190602001906200011f92919062000343565b50505062000142620001366200018e60201b60201c565b6200019660201b60201c565b620001886040518060400160405280600481526020017f5f757269000000000000000000000000000000000000000000000000000000008152506200025c60201b60201c565b620004db565b600033905090565b6000600a60009054906101000a900473ffffffffffffffffffffffffffffffffffffffff16905081600a60006101000a81548173ffffffffffffffffffffffffffffffffffffffff021916908373ffffffffffffffffffffffffffffffffffffffff1602179055508173ffffffffffffffffffffffffffffffffffffffff168173ffffffffffffffffffffffffffffffffffffffff167f8be0079c531659141344cd1fd0a4f28419497f9722a3daafe3b4186f6b6457e060405160405180910390a35050565b6200026c6200028860201b60201c565b80600b90805190602001906200028492919062000343565b5050565b620002986200018e60201b60201c565b73ffffffffffffffffffffffffffffffffffffffff16620002be6200031960201b60201c565b73ffffffffffffffffffffffffffffffffffffffff161462000317576040517f08c379a00000000000000000000000000000000000000000000000000000000081526004016200030e906200041a565b60405180910390fd5b565b6000600a60009054906101000a900473ffffffffffffffffffffffffffffffffffffffff16905090565b82805462000351906200044d565b90600052602060002090601f016020900481019282620003755760008555620003c1565b82601f106200039057805160ff1916838001178555620003c1565b82800160010185558215620003c1579182015b82811115620003c0578251825591602001919060010190620003a3565b5b509050620003d09190620003d4565b5090565b5b80821115620003ef576000816000905550600101620003d5565b5090565b6000620004026020836200043c565b91506200040f82620004b2565b602082019050919050565b600060208201905081810360008301526200043581620003f3565b9050919050565b600082825260208201905092915050565b600060028204905060018216806200046657607f821691505b602082108114156200047d576200047c62000483565b5b50919050565b7f4e487b7100000000000000000000000000000000000000000000000000000000600052602260045260246000fd5b7f4f776e61626c653a2063616c6c6572206973206e6f7420746865206f776e6572600082015250565b613ce280620004eb6000396000f3fe6080604052600436106101cd5760003560e01c80636352211e116100f7578063c668286211610095578063da3ef23f11610064578063da3ef23f1461065a578063e985e9c514610683578063f2fde38b146106c0578063ffd4aa55146106e9576101cd565b8063c66828621461059e578063c87b56dd146105c9578063d5abeb0114610606578063d67b06c114610631576101cd565b80638da5cb5b116100d15780638da5cb5b146104f657806395d89b4114610521578063a22cb4651461054c578063b88d4fde14610575576101cd565b80636352211e1461046557806370a08231146104a2578063715018a6146104df576101cd565b806323b872dd1161016f578063438b63001161013e578063438b6300146103975780634f6ccce7146103d457806355f804b3146104115780635c975abb1461043a576101cd565b806323b872dd146102fe5780632f745c59146103275780633ccfd60b1461036457806342842e0e1461036e576101cd565b8063081812fc116101ab578063081812fc14610263578063095ea7b3146102a05780631249c58b146102c957806318160ddd146102d3576101cd565b806301ffc9a7146101d257806302329a291461020f57806306fdde0314610238575b600080fd5b3480156101de57600080fd5b506101f960048036038101906101f49190612bcd565b610712565b604051610206919061317f565b60405180910390f35b34801561021b57600080fd5b5061023660048036038101906102319190612ba4565b61078c565b005b34801561024457600080fd5b5061024d6107b1565b60405161025a919061319a565b60405180910390f35b34801561026f57600080fd5b5061028a60048036038101906102859190612c60565b610843565b60405161029791906130f6565b60405180910390f35b3480156102ac57600080fd5b506102c760048036038101906102c29190612b27565b610889565b005b6102d16109a1565b005b3480156102df57600080fd5b506102e86109fb565b6040516102f591906133bc565b60405180910390f35b34801561030a57600080fd5b5061032560048036038101906103209190612a21565b610a08565b005b34801561033357600080fd5b5061034e60048036038101906103499190612b27565b610a68565b60405161035b91906133bc565b60405180910390f35b61036c610b0d565b005b34801561037a57600080fd5b5061039560048036038101906103909190612a21565b610b95565b005b3480156103a357600080fd5b506103be60048036038101906103b991906129bc565b610bb5565b6040516103cb919061315d565b60405180910390f35b3480156103e057600080fd5b506103fb60048036038101906103f69190612c60565b610caf565b60405161040891906133bc565b60405180910390f35b34801561041d57600080fd5b5061043860048036038101906104339190612c1f565b610d46565b005b34801561044657600080fd5b5061044f610d68565b60405161045c919061317f565b60405180910390f35b34801561047157600080fd5b5061048c60048036038101906104879190612c60565b610d7b565b60405161049991906130f6565b60405180910390f35b3480156104ae57600080fd5b506104c960048036038101906104c491906129bc565b610e2d565b6040516104d691906133bc565b60405180910390f35b3480156104eb57600080fd5b506104f4610ee5565b005b34801561050257600080fd5b5061050b610ef9565b60405161051891906130f6565b60405180910390f35b34801561052d57600080fd5b50610536610f23565b604051610543919061319a565b60405180910390f35b34801561055857600080fd5b50610573600480360381019061056e9190612aeb565b610fb5565b005b34801561058157600080fd5b5061059c60048036038101906105979190612a70565b610fcb565b005b3480156105aa57600080fd5b506105b361102d565b6040516105c0919061319a565b60405180910390f35b3480156105d557600080fd5b506105f060048036038101906105eb9190612c60565b6110bb565b6040516105fd919061319a565b60405180910390f35b34801561061257600080fd5b5061061b611165565b60405161062891906133bc565b60405180910390f35b34801561063d57600080fd5b5061065860048036038101906106539190612b63565b61116b565b005b34801561066657600080fd5b50610681600480360381019061067c9190612c1f565b611220565b005b34801561068f57600080fd5b506106aa60048036038101906106a591906129e5565b611242565b6040516106b7919061317f565b60405180910390f35b3480156106cc57600080fd5b506106e760048036038101906106e291906129bc565b6112d6565b005b3480156106f557600080fd5b50610710600480360381019061070b91906129bc565b61135a565b005b60007f780e9d63000000000000000000000000000000000000000000000000000000007bffffffffffffffffffffffffffffffffffffffffffffffffffffffff1916827bffffffffffffffffffffffffffffffffffffffffffffffffffffffff1916148061078557506107848261139b565b5b9050919050565b61079461147d565b80600e60006101000a81548160ff02191690831515021790555050565b6060600080546107c090613697565b80601f01602080910402602001604051908101604052809291908181526020018280546107ec90613697565b80156108395780601f1061080e57610100808354040283529160200191610839565b820191906000526020600020905b81548152906001019060200180831161081c57829003601f168201915b5050505050905090565b600061084e826114fb565b6004600083815260200190815260200160002060009054906101000a900473ffffffffffffffffffffffffffffffffffffffff169050919050565b600061089482610d7b565b90508073ffffffffffffffffffffffffffffffffffffffff168373ffffffffffffffffffffffffffffffffffffffff161415610905576040517f08c379a00000000000000000000000000000000000000000000000000000000081526004016108fc9061335c565b60405180910390fd5b8073ffffffffffffffffffffffffffffffffffffffff16610924611546565b73ffffffffffffffffffffffffffffffffffffffff16148061095357506109528161094d611546565b611242565b5b610992576040517f08c379a0000000000000000000000000000000000000000000000000000000008152600401610989906132dc565b60405180910390fd5b61099c838361154e565b505050565b60006109ab6109fb565b9050600e60009054906101000a900460ff16156109c757600080fd5b600d546001826109d79190613526565b11156109e257600080fd5b6109f8336001836109f39190613526565b611607565b50565b6000600880549050905090565b610a19610a13611546565b82611625565b610a58576040517f08c379a0000000000000000000000000000000000000000000000000000000008152600401610a4f9061339c565b60405180910390fd5b610a638383836116ba565b505050565b6000610a7383610e2d565b8210610ab4576040517f08c379a0000000000000000000000000000000000000000000000000000000008152600401610aab906131dc565b60405180910390fd5b600660008473ffffffffffffffffffffffffffffffffffffffff1673ffffffffffffffffffffffffffffffffffffffff168152602001908152602001600020600083815260200190815260200160002054905092915050565b610b1561147d565b6000610b1f610ef9565b73ffffffffffffffffffffffffffffffffffffffff1647604051610b42906130e1565b60006040518083038185875af1925050503d8060008114610b7f576040519150601f19603f3d011682016040523d82523d6000602084013e610b84565b606091505b5050905080610b9257600080fd5b50565b610bb083838360405180602001604052806000815250610fcb565b505050565b60606000610bc283610e2d565b905060008167ffffffffffffffff811115610c06577f4e487b7100000000000000000000000000000000000000000000000000000000600052604160045260246000fd5b604051908082528060200260200182016040528015610c345781602001602082028036833780820191505090505b50905060005b82811015610ca457610c4c8582610a68565b828281518110610c85577f4e487b7100000000000000000000000000000000000000000000000000000000600052603260045260246000fd5b6020026020010181815250508080610c9c906136fa565b915050610c3a565b508092505050919050565b6000610cb96109fb565b8210610cfa576040517f08c379a0000000000000000000000000000000000000000000000000000000008152600401610cf19061337c565b60405180910390fd5b60088281548110610d34577f4e487b7100000000000000000000000000000000000000000000000000000000600052603260045260246000fd5b90600052602060002001549050919050565b610d4e61147d565b80600b9080519060200190610d6492919061274a565b5050565b600e60009054906101000a900460ff1681565b6000806002600084815260200190815260200160002060009054906101000a900473ffffffffffffffffffffffffffffffffffffffff169050600073ffffffffffffffffffffffffffffffffffffffff168173ffffffffffffffffffffffffffffffffffffffff161415610e24576040517f08c379a0000000000000000000000000000000000000000000000000000000008152600401610e1b9061333c565b60405180910390fd5b80915050919050565b60008073ffffffffffffffffffffffffffffffffffffffff168273ffffffffffffffffffffffffffffffffffffffff161415610e9e576040517f08c379a0000000000000000000000000000000000000000000000000000000008152600401610e95906132bc565b60405180910390fd5b600360008373ffffffffffffffffffffffffffffffffffffffff1673ffffffffffffffffffffffffffffffffffffffff168152602001908152602001600020549050919050565b610eed61147d565b610ef76000611921565b565b6000600a60009054906101000a900473ffffffffffffffffffffffffffffffffffffffff16905090565b606060018054610f3290613697565b80601f0160208091040260200160405190810160405280929190818152602001828054610f5e90613697565b8015610fab5780601f10610f8057610100808354040283529160200191610fab565b820191906000526020600020905b815481529060010190602001808311610f8e57829003601f168201915b5050505050905090565b610fc7610fc0611546565b83836119e7565b5050565b610fdc610fd6611546565b83611625565b61101b576040517f08c379a00000000000000000000000000000000000000000000000000000000081526004016110129061339c565b60405180910390fd5b61102784848484611b54565b50505050565b600c805461103a90613697565b80601f016020809104026020016040519081016040528092919081815260200182805461106690613697565b80156110b35780601f10611088576101008083540402835291602001916110b3565b820191906000526020600020905b81548152906001019060200180831161109657829003601f168201915b505050505081565b60606110c682611bb0565b611105576040517f08c379a00000000000000000000000000000000000000000000000000000000081526004016110fc906131bc565b60405180910390fd5b600061110f611c1c565b9050600081511161112f576040518060200160405280600081525061115d565b8061113984611cae565b600c60405160200161114d939291906130b0565b6040516020818303038152906040525b915050919050565b600d5481565b60006111756109fb565b9050600082519050600d5460018361118d9190613526565b111561119857600080fd5b60005b8181101561121a576111f98482815181106111df577f4e487b7100000000000000000000000000000000000000000000000000000000600052603260045260246000fd5b60200260200101516001856111f49190613526565b611607565b8280611204906136fa565b9350508080611212906136fa565b91505061119b565b50505050565b61122861147d565b80600c908051906020019061123e92919061274a565b5050565b6000600560008473ffffffffffffffffffffffffffffffffffffffff1673ffffffffffffffffffffffffffffffffffffffff16815260200190815260200160002060008373ffffffffffffffffffffffffffffffffffffffff1673ffffffffffffffffffffffffffffffffffffffff16815260200190815260200160002060009054906101000a900460ff16905092915050565b6112de61147d565b600073ffffffffffffffffffffffffffffffffffffffff168173ffffffffffffffffffffffffffffffffffffffff16141561134e576040517f08c379a00000000000000000000000000000000000000000000000000000000081526004016113459061321c565b60405180910390fd5b61135781611921565b50565b60006113646109fb565b9050600d546001826113769190613526565b111561138157600080fd5b611397826001836113929190613526565b611607565b5050565b60007f80ac58cd000000000000000000000000000000000000000000000000000000007bffffffffffffffffffffffffffffffffffffffffffffffffffffffff1916827bffffffffffffffffffffffffffffffffffffffffffffffffffffffff1916148061146657507f5b5e139f000000000000000000000000000000000000000000000000000000007bffffffffffffffffffffffffffffffffffffffffffffffffffffffff1916827bffffffffffffffffffffffffffffffffffffffffffffffffffffffff1916145b80611476575061147582611e5b565b5b9050919050565b611485611546565b73ffffffffffffffffffffffffffffffffffffffff166114a3610ef9565b73ffffffffffffffffffffffffffffffffffffffff16146114f9576040517f08c379a00000000000000000000000000000000000000000000000000000000081526004016114f09061331c565b60405180910390fd5b565b61150481611bb0565b611543576040517f08c379a000000000000000000000000000000000000000000000000000000000815260040161153a9061333c565b60405180910390fd5b50565b600033905090565b816004600083815260200190815260200160002060006101000a81548173ffffffffffffffffffffffffffffffffffffffff021916908373ffffffffffffffffffffffffffffffffffffffff160217905550808273ffffffffffffffffffffffffffffffffffffffff166115c183610d7b565b73ffffffffffffffffffffffffffffffffffffffff167f8c5be1e5ebec7d5bd14f71427d1e84f3dd0314c0f7b2291e5b200ac8c7c3b92560405160405180910390a45050565b611621828260405180602001604052806000815250611ec5565b5050565b60008061163183610d7b565b90508073ffffffffffffffffffffffffffffffffffffffff168473ffffffffffffffffffffffffffffffffffffffff16148061167357506116728185611242565b5b806116b157508373ffffffffffffffffffffffffffffffffffffffff1661169984610843565b73ffffffffffffffffffffffffffffffffffffffff16145b91505092915050565b8273ffffffffffffffffffffffffffffffffffffffff166116da82610d7b565b73ffffffffffffffffffffffffffffffffffffffff1614611730576040517f08c379a00000000000000000000000000000000000000000000000000000000081526004016117279061323c565b60405180910390fd5b600073ffffffffffffffffffffffffffffffffffffffff168273ffffffffffffffffffffffffffffffffffffffff1614156117a0576040517f08c379a00000000000000000000000000000000000000000000000000000000081526004016117979061327c565b60405180910390fd5b6117ab838383611f20565b6117b660008261154e565b6001600360008573ffffffffffffffffffffffffffffffffffffffff1673ffffffffffffffffffffffffffffffffffffffff168152602001908152602001600020600082825461180691906135ad565b925050819055506001600360008473ffffffffffffffffffffffffffffffffffffffff1673ffffffffffffffffffffffffffffffffffffffff168152602001908152602001600020600082825461185d9190613526565b92505081905550816002600083815260200190815260200160002060006101000a81548173ffffffffffffffffffffffffffffffffffffffff021916908373ffffffffffffffffffffffffffffffffffffffff160217905550808273ffffffffffffffffffffffffffffffffffffffff168473ffffffffffffffffffffffffffffffffffffffff167fddf252ad1be2c89b69c2b068fc378daa952ba7f163c4a11628f55a4df523b3ef60405160405180910390a461191c838383612034565b505050565b6000600a60009054906101000a900473ffffffffffffffffffffffffffffffffffffffff16905081600a60006101000a81548173ffffffffffffffffffffffffffffffffffffffff021916908373ffffffffffffffffffffffffffffffffffffffff1602179055508173ffffffffffffffffffffffffffffffffffffffff168173ffffffffffffffffffffffffffffffffffffffff167f8be0079c531659141344cd1fd0a4f28419497f9722a3daafe3b4186f6b6457e060405160405180910390a35050565b8173ffffffffffffffffffffffffffffffffffffffff168373ffffffffffffffffffffffffffffffffffffffff161415611a56576040517f08c379a0000000000000000000000000000000000000000000000000000000008152600401611a4d9061329c565b60405180910390fd5b80600560008573ffffffffffffffffffffffffffffffffffffffff1673ffffffffffffffffffffffffffffffffffffffff16815260200190815260200160002060008473ffffffffffffffffffffffffffffffffffffffff1673ffffffffffffffffffffffffffffffffffffffff16815260200190815260200160002060006101000a81548160ff0219169083151502179055508173ffffffffffffffffffffffffffffffffffffffff168373ffffffffffffffffffffffffffffffffffffffff167f17307eab39ab6107e8899845ad3d59bd9653f200f220920489ca2b5937696c3183604051611b47919061317f565b60405180910390a3505050565b611b5f8484846116ba565b611b6b84848484612039565b611baa576040517f08c379a0000000000000000000000000000000000000000000000000000000008152600401611ba1906131fc565b60405180910390fd5b50505050565b60008073ffffffffffffffffffffffffffffffffffffffff166002600084815260200190815260200160002060009054906101000a900473ffffffffffffffffffffffffffffffffffffffff1673ffffffffffffffffffffffffffffffffffffffff1614159050919050565b6060600b8054611c2b90613697565b80601f0160208091040260200160405190810160405280929190818152602001828054611c5790613697565b8015611ca45780601f10611c7957610100808354040283529160200191611ca4565b820191906000526020600020905b815481529060010190602001808311611c8757829003601f168201915b5050505050905090565b60606000821415611cf6576040518060400160405280600181526020017f30000000000000000000000000000000000000000000000000000000000000008152509050611e56565b600082905060005b60008214611d28578080611d11906136fa565b915050600a82611d21919061357c565b9150611cfe565b60008167ffffffffffffffff811115611d6a577f4e487b7100000000000000000000000000000000000000000000000000000000600052604160045260246000fd5b6040519080825280601f01601f191660200182016040528015611d9c5781602001600182028036833780820191505090505b5090505b60008514611e4f57600182611db591906135ad565b9150600a85611dc49190613743565b6030611dd09190613526565b60f81b818381518110611e0c577f4e487b7100000000000000000000000000000000000000000000000000000000600052603260045260246000fd5b60200101907effffffffffffffffffffffffffffffffffffffffffffffffffffffffffffff1916908160001a905350600a85611e48919061357c565b9450611da0565b8093505050505b919050565b60007f01ffc9a7000000000000000000000000000000000000000000000000000000007bffffffffffffffffffffffffffffffffffffffffffffffffffffffff1916827bffffffffffffffffffffffffffffffffffffffffffffffffffffffff1916149050919050565b611ecf83836121d0565b611edc6000848484612039565b611f1b576040517f08c379a0000000000000000000000000000000000000000000000000000000008152600401611f12906131fc565b60405180910390fd5b505050565b611f2b8383836123aa565b600073ffffffffffffffffffffffffffffffffffffffff168373ffffffffffffffffffffffffffffffffffffffff161415611f6e57611f69816123af565b611fad565b8173ffffffffffffffffffffffffffffffffffffffff168373ffffffffffffffffffffffffffffffffffffffff1614611fac57611fab83826123f8565b5b5b600073ffffffffffffffffffffffffffffffffffffffff168273ffffffffffffffffffffffffffffffffffffffff161415611ff057611feb81612565565b61202f565b8273ffffffffffffffffffffffffffffffffffffffff168273ffffffffffffffffffffffffffffffffffffffff161461202e5761202d82826126a8565b5b5b505050565b505050565b600061205a8473ffffffffffffffffffffffffffffffffffffffff16612727565b156121c3578373ffffffffffffffffffffffffffffffffffffffff1663150b7a02612083611546565b8786866040518563ffffffff1660e01b81526004016120a59493929190613111565b602060405180830381600087803b1580156120bf57600080fd5b505af19250505080156120f057506040513d601f19601f820116820180604052508101906120ed9190612bf6565b60015b612173573d8060008114612120576040519150601f19603f3d011682016040523d82523d6000602084013e612125565b606091505b5060008151141561216b576040517f08c379a0000000000000000000000000000000000000000000000000000000008152600401612162906131fc565b60405180910390fd5b805181602001fd5b63150b7a0260e01b7bffffffffffffffffffffffffffffffffffffffffffffffffffffffff1916817bffffffffffffffffffffffffffffffffffffffffffffffffffffffff1916149150506121c8565b600190505b949350505050565b600073ffffffffffffffffffffffffffffffffffffffff168273ffffffffffffffffffffffffffffffffffffffff161415612240576040517f08c379a0000000000000000000000000000000000000000000000000000000008152600401612237906132fc565b60405180910390fd5b61224981611bb0565b15612289576040517f08c379a00000000000000000000000000000000000000000000000000000000081526004016122809061325c565b60405180910390fd5b61229560008383611f20565b6001600360008473ffffffffffffffffffffffffffffffffffffffff1673ffffffffffffffffffffffffffffffffffffffff16815260200190815260200160002060008282546122e59190613526565b92505081905550816002600083815260200190815260200160002060006101000a81548173ffffffffffffffffffffffffffffffffffffffff021916908373ffffffffffffffffffffffffffffffffffffffff160217905550808273ffffffffffffffffffffffffffffffffffffffff16600073ffffffffffffffffffffffffffffffffffffffff167fddf252ad1be2c89b69c2b068fc378daa952ba7f163c4a11628f55a4df523b3ef60405160405180910390a46123a660008383612034565b5050565b505050565b6008805490506009600083815260200190815260200160002081905550600881908060018154018082558091505060019003906000526020600020016000909190919091505550565b6000600161240584610e2d565b61240f91906135ad565b90506000600760008481526020019081526020016000205490508181146124f4576000600660008673ffffffffffffffffffffffffffffffffffffffff1673ffffffffffffffffffffffffffffffffffffffff168152602001908152602001600020600084815260200190815260200160002054905080600660008773ffffffffffffffffffffffffffffffffffffffff1673ffffffffffffffffffffffffffffffffffffffff168152602001908152602001600020600084815260200190815260200160002081905550816007600083815260200190815260200160002081905550505b6007600084815260200190815260200160002060009055600660008573ffffffffffffffffffffffffffffffffffffffff1673ffffffffffffffffffffffffffffffffffffffff16815260200190815260200160002060008381526020019081526020016000206000905550505050565b6000600160088054905061257991906135ad565b90506000600960008481526020019081526020016000205490506000600883815481106125cf577f4e487b7100000000000000000000000000000000000000000000000000000000600052603260045260246000fd5b906000526020600020015490508060088381548110612617577f4e487b7100000000000000000000000000000000000000000000000000000000600052603260045260246000fd5b90600052602060002001819055508160096000838152602001908152602001600020819055506009600085815260200190815260200160002060009055600880548061268c577f4e487b7100000000000000000000000000000000000000000000000000000000600052603160045260246000fd5b6001900381819060005260206000200160009055905550505050565b60006126b383610e2d565b905081600660008573ffffffffffffffffffffffffffffffffffffffff1673ffffffffffffffffffffffffffffffffffffffff168152602001908152602001600020600083815260200190815260200160002081905550806007600084815260200190815260200160002081905550505050565b6000808273ffffffffffffffffffffffffffffffffffffffff163b119050919050565b82805461275690613697565b90600052602060002090601f01602090048101928261277857600085556127bf565b82601f1061279157805160ff19168380011785556127bf565b828001600101855582156127bf579182015b828111156127be5782518255916020019190600101906127a3565b5b5090506127cc91906127d0565b5090565b5b808211156127e95760008160009055506001016127d1565b5090565b60006128006127fb846133fc565b6133d7565b9050808382526020820190508285602086028201111561281f57600080fd5b60005b8581101561284f578161283588826128d5565b845260208401935060208301925050600181019050612822565b5050509392505050565b600061286c61286784613428565b6133d7565b90508281526020810184848401111561288457600080fd5b61288f848285613655565b509392505050565b60006128aa6128a584613459565b6133d7565b9050828152602081018484840111156128c257600080fd5b6128cd848285613655565b509392505050565b6000813590506128e481613c50565b92915050565b600082601f8301126128fb57600080fd5b813561290b8482602086016127ed565b91505092915050565b60008135905061292381613c67565b92915050565b60008135905061293881613c7e565b92915050565b60008151905061294d81613c7e565b92915050565b600082601f83011261296457600080fd5b8135612974848260208601612859565b91505092915050565b600082601f83011261298e57600080fd5b813561299e848260208601612897565b91505092915050565b6000813590506129b681613c95565b92915050565b6000602082840312156129ce57600080fd5b60006129dc848285016128d5565b91505092915050565b600080604083850312156129f857600080fd5b6000612a06858286016128d5565b9250506020612a17858286016128d5565b9150509250929050565b600080600060608486031215612a3657600080fd5b6000612a44868287016128d5565b9350506020612a55868287016128d5565b9250506040612a66868287016129a7565b9150509250925092565b60008060008060808587031215612a8657600080fd5b6000612a94878288016128d5565b9450506020612aa5878288016128d5565b9350506040612ab6878288016129a7565b925050606085013567ffffffffffffffff811115612ad357600080fd5b612adf87828801612953565b91505092959194509250565b60008060408385031215612afe57600080fd5b6000612b0c858286016128d5565b9250506020612b1d85828601612914565b9150509250929050565b60008060408385031215612b3a57600080fd5b6000612b48858286016128d5565b9250506020612b59858286016129a7565b9150509250929050565b600060208284031215612b7557600080fd5b600082013567ffffffffffffffff811115612b8f57600080fd5b612b9b848285016128ea565b91505092915050565b600060208284031215612bb657600080fd5b6000612bc484828501612914565b91505092915050565b600060208284031215612bdf57600080fd5b6000612bed84828501612929565b91505092915050565b600060208284031215612c0857600080fd5b6000612c168482850161293e565b91505092915050565b600060208284031215612c3157600080fd5b600082013567ffffffffffffffff811115612c4b57600080fd5b612c578482850161297d565b91505092915050565b600060208284031215612c7257600080fd5b6000612c80848285016129a7565b91505092915050565b6000612c958383613092565b60208301905092915050565b612caa816135e1565b82525050565b6000612cbb826134af565b612cc581856134dd565b9350612cd08361348a565b8060005b83811015612d01578151612ce88882612c89565b9750612cf3836134d0565b925050600181019050612cd4565b5085935050505092915050565b612d17816135f3565b82525050565b6000612d28826134ba565b612d3281856134ee565b9350612d42818560208601613664565b612d4b81613830565b840191505092915050565b6000612d61826134c5565b612d6b818561350a565b9350612d7b818560208601613664565b612d8481613830565b840191505092915050565b6000612d9a826134c5565b612da4818561351b565b9350612db4818560208601613664565b80840191505092915050565b60008154612dcd81613697565b612dd7818661351b565b94506001821660008114612df25760018114612e0357612e36565b60ff19831686528186019350612e36565b612e0c8561349a565b60005b83811015612e2e57815481890152600182019150602081019050612e0f565b838801955050505b50505092915050565b6000612e4c60168361350a565b9150612e5782613841565b602082019050919050565b6000612e6f602b8361350a565b9150612e7a8261386a565b604082019050919050565b6000612e9260328361350a565b9150612e9d826138b9565b604082019050919050565b6000612eb560268361350a565b9150612ec082613908565b604082019050919050565b6000612ed860258361350a565b9150612ee382613957565b604082019050919050565b6000612efb601c8361350a565b9150612f06826139a6565b602082019050919050565b6000612f1e60248361350a565b9150612f29826139cf565b604082019050919050565b6000612f4160198361350a565b9150612f4c82613a1e565b602082019050919050565b6000612f6460298361350a565b9150612f6f82613a47565b604082019050919050565b6000612f87603e8361350a565b9150612f9282613a96565b604082019050919050565b6000612faa60208361350a565b9150612fb582613ae5565b602082019050919050565b6000612fcd60208361350a565b9150612fd882613b0e565b602082019050919050565b6000612ff060188361350a565b9150612ffb82613b37565b602082019050919050565b600061301360218361350a565b915061301e82613b60565b604082019050919050565b60006130366000836134ff565b915061304182613baf565b600082019050919050565b6000613059602c8361350a565b915061306482613bb2565b604082019050919050565b600061307c602e8361350a565b915061308782613c01565b604082019050919050565b61309b8161364b565b82525050565b6130aa8161364b565b82525050565b60006130bc8286612d8f565b91506130c88285612d8f565b91506130d48284612dc0565b9150819050949350505050565b60006130ec82613029565b9150819050919050565b600060208201905061310b6000830184612ca1565b92915050565b60006080820190506131266000830187612ca1565b6131336020830186612ca1565b61314060408301856130a1565b81810360608301526131528184612d1d565b905095945050505050565b600060208201905081810360008301526131778184612cb0565b905092915050565b60006020820190506131946000830184612d0e565b92915050565b600060208201905081810360008301526131b48184612d56565b905092915050565b600060208201905081810360008301526131d581612e3f565b9050919050565b600060208201905081810360008301526131f581612e62565b9050919050565b6000602082019050818103600083015261321581612e85565b9050919050565b6000602082019050818103600083015261323581612ea8565b9050919050565b6000602082019050818103600083015261325581612ecb565b9050919050565b6000602082019050818103600083015261327581612eee565b9050919050565b6000602082019050818103600083015261329581612f11565b9050919050565b600060208201905081810360008301526132b581612f34565b9050919050565b600060208201905081810360008301526132d581612f57565b9050919050565b600060208201905081810360008301526132f581612f7a565b9050919050565b6000602082019050818103600083015261331581612f9d565b9050919050565b6000602082019050818103600083015261333581612fc0565b9050919050565b6000602082019050818103600083015261335581612fe3565b9050919050565b6000602082019050818103600083015261337581613006565b9050919050565b600060208201905081810360008301526133958161304c565b9050919050565b600060208201905081810360008301526133b58161306f565b9050919050565b60006020820190506133d160008301846130a1565b92915050565b60006133e16133f2565b90506133ed82826136c9565b919050565b6000604051905090565b600067ffffffffffffffff82111561341757613416613801565b5b602082029050602081019050919050565b600067ffffffffffffffff82111561344357613442613801565b5b61344c82613830565b9050602081019050919050565b600067ffffffffffffffff82111561347457613473613801565b5b61347d82613830565b9050602081019050919050565b6000819050602082019050919050565b60008190508160005260206000209050919050565b600081519050919050565b600081519050919050565b600081519050919050565b6000602082019050919050565b600082825260208201905092915050565b600082825260208201905092915050565b600081905092915050565b600082825260208201905092915050565b600081905092915050565b60006135318261364b565b915061353c8361364b565b9250827fffffffffffffffffffffffffffffffffffffffffffffffffffffffffffffffff0382111561357157613570613774565b5b828201905092915050565b60006135878261364b565b91506135928361364b565b9250826135a2576135a16137a3565b5b828204905092915050565b60006135b88261364b565b91506135c38361364b565b9250828210156135d6576135d5613774565b5b828203905092915050565b60006135ec8261362b565b9050919050565b60008115159050919050565b60007fffffffff0000000000000000000000000000000000000000000000000000000082169050919050565b600073ffffffffffffffffffffffffffffffffffffffff82169050919050565b6000819050919050565b82818337600083830152505050565b60005b83811015613682578082015181840152602081019050613667565b83811115613691576000848401525b50505050565b600060028204905060018216806136af57607f821691505b602082108114156136c3576136c26137d2565b5b50919050565b6136d282613830565b810181811067ffffffffffffffff821117156136f1576136f0613801565b5b80604052505050565b60006137058261364b565b91507fffffffffffffffffffffffffffffffffffffffffffffffffffffffffffffffff82141561373857613737613774565b5b600182019050919050565b600061374e8261364b565b91506137598361364b565b925082613769576137686137a3565b5b828206905092915050565b7f4e487b7100000000000000000000000000000000000000000000000000000000600052601160045260246000fd5b7f4e487b7100000000000000000000000000000000000000000000000000000000600052601260045260246000fd5b7f4e487b7100000000000000000000000000000000000000000000000000000000600052602260045260246000fd5b7f4e487b7100000000000000000000000000000000000000000000000000000000600052604160045260246000fd5b6000601f19601f8301169050919050565b7f546f6b656e204e6f74204d696e74656420796574212000000000000000000000600082015250565b7f455243373231456e756d657261626c653a206f776e657220696e646578206f7560008201527f74206f6620626f756e6473000000000000000000000000000000000000000000602082015250565b7f4552433732313a207472616e7366657220746f206e6f6e20455243373231526560008201527f63656976657220696d706c656d656e7465720000000000000000000000000000602082015250565b7f4f776e61626c653a206e6577206f776e657220697320746865207a65726f206160008201527f6464726573730000000000000000000000000000000000000000000000000000602082015250565b7f4552433732313a207472616e736665722066726f6d20696e636f72726563742060008201527f6f776e6572000000000000000000000000000000000000000000000000000000602082015250565b7f4552433732313a20746f6b656e20616c7265616479206d696e74656400000000600082015250565b7f4552433732313a207472616e7366657220746f20746865207a65726f2061646460008201527f7265737300000000000000000000000000000000000000000000000000000000602082015250565b7f4552433732313a20617070726f766520746f2063616c6c657200000000000000600082015250565b7f4552433732313a2061646472657373207a65726f206973206e6f74206120766160008201527f6c6964206f776e65720000000000000000000000000000000000000000000000602082015250565b7f4552433732313a20617070726f76652063616c6c6572206973206e6f7420746f60008201527f6b656e206f776e6572206e6f7220617070726f76656420666f7220616c6c0000602082015250565b7f4552433732313a206d696e7420746f20746865207a65726f2061646472657373600082015250565b7f4f776e61626c653a2063616c6c6572206973206e6f7420746865206f776e6572600082015250565b7f4552433732313a20696e76616c696420746f6b656e2049440000000000000000600082015250565b7f4552433732313a20617070726f76616c20746f2063757272656e74206f776e6560008201527f7200000000000000000000000000000000000000000000000000000000000000602082015250565b50565b7f455243373231456e756d657261626c653a20676c6f62616c20696e646578206f60008201527f7574206f6620626f756e64730000000000000000000000000000000000000000602082015250565b7f4552433732313a2063616c6c6572206973206e6f7420746f6b656e206f776e6560008201527f72206e6f7220617070726f766564000000000000000000000000000000000000602082015250565b613c59816135e1565b8114613c6457600080fd5b50565b613c70816135f3565b8114613c7b57600080fd5b50565b613c87816135ff565b8114613c9257600080fd5b50565b613c9e8161364b565b8114613ca957600080fd5b5056fea2646970667358221220d5d6be1e8a1c4efd91217a184f77709aaa526813c5141f527d00003607abe6f764736f6c63430008040033",
  "linkReferences": {},
  "deployedLinkReferences": {}
}